:030000000201B248
:0C01B200787FE4F6D8FD75812002008201
:0A01BE00C0F9A4B0999282F8809075
:1000820012015B7D837F901201147F901200E79032
:100092000001E4F0A3EFF07FC812013E900001A33B
:1000A200E0F5997FC812013E3098D8900000E5999A
:0800B200F0E0F599C29880CB43
:10013E00EFD394007480948040127E7DEED39400B1
:0C014E007480948040031E80F31F80E446
:01015A002282
:10015B00D2AFD2ACD2AB758920E4F58775985075C8
:08016B008DFD758BFDD28E2283
:10018B00D2A100D2A00000000000C2A1000000001C
:06019B0000C2A0000022DA
:1001A100C2A100D2A00000000000D2A10000000006
:0101B100222B
:10000300E4FEEEC39408748094805020A806EF08A1
:100013008002C333D8FC30E704D2A18002C2A1001E
:10002300D2A00000000000C2A00E80D60000D2A122
:100033000000D2A000000030A104C2008002D20060
:04004300C2A0000057
:010047002296
:1000BA00E4FFD2A1FEEEC394087480948050190024
:1000CA00C2A00000000000D2A00000EF25E0FF302F
:0C00DA00A1010F00000E80DDC2A000009C
:0100E60022F7
:10017300200104C2A18002D2A1000000D2A000008D
:08018300000000C2A0000022F0
:10004800900062EFF0A3EDF0A3EBF012018B9000AB
:1000580062E0FF120003200002C322900063E0FF69
:10006800120003200002C322900064E0FF12000384
:0A007800200002C3221201A1D322CE
:10011400900065EFF0A3EDF012018B900065E0FF15
:10012400120003200002C322900066E0FF120003C5
:0A013400200002C3221201A1D32211
:0500E700900065EFF040
:1000EC0012018B900065E004FF1200032000037FD7
:1000FC0000221200BA900066EFF0D20112017312C6
:07010C0001A1900066E0FF75
:0101130022C9
:00000001FF
