:0300000002046E89
:0C046E00787FE4F6D8FD7581200201C5FE
:10028F00AB07AA067C277D10120162EF2430F50D13
:10029F007C277D10AF03AE02120162AA04AB057C6E
:1002AF00037DE8AF03AE02120162EF2430F5087C44
:1002BF00037DE8AF03AE02120162AA04AB057C0016
:1002CF007D64AF03AE02120162EF2430F5097C00AA
:1002DF007D64AF03AE02120162AA04AB057C007D00
:1002EF000AAF03AE02120162EF2430F50C7C007DE1
:0E02FF000AAF03AE02120162ED2430F50E22AA
:10038A00E4FDFCC3ED9FEC9E5015E4FBFA0BBB00A9
:0F039A00010AEB64794A70F50DBD00010C80E497
:0103A9002231
:1003F9007580FFC2A0D2A100D2A20000E58020E74B
:04040900FBC2A2226E
:1003E400ED60031203F9C2A0C2A1008F8000D2A263
:0503F4000000C2A2227E
:10040D001203F9D2A0C2A1008F8000D2A20000C2B7
:02041D00A22219
:1003C9007D017F381203E47F081203E47F011203E1
:0B03D900E47F061203E47F0C0203E443
:1003AA00AE07AC0353050153060FED600343064045
:0F03BA00430680AF06E4FD1203E4AF0402040D16
:1004310000000000000000000000000000000000BB
:010441002298
:0E0442007F307E02EF1FAC0670011E4C70F67C
:010450002289
:0F045100D291D290120431C291120431C2902282
:0C047A00C291D290120431D291020431E0
:0E046000A2009291D290120431C29002043197
:0C048600D290120431A291C29002043105
:10036800E4FEEEC39408748094805013EF25E0FFF8
:100378009291D290120431C2901204310E80E3029D
:020388000486E9
:10034100E4FFD291FEEEC39408748094805017EFBD
:1003510025E0FFD290120431A291E4334207C2900A
:060361001204310E80DFE2
:010367002273
:10041F00AD071204517F46120368AF05120368023D
:02042F00047A4D
:10030D001204517F47120368E4FDEDC3940374801A
:10031D009480501A120341740F2DF8A607ED640353
:10032D007004D2008002C2001204600D80DC120441
:04033D007A020442FA
:050492007F0102041FC0
:1001C5007F647E0012038A1203C91204927F011212
:1001D500041F7F1012041F7FB47E0012038A1203CE
:1001E5000D750A00850F0BE50BFE7C00E42510F567
:1001F5000BEC3EF50AFCAD0B1200A87B9A7A9979B7
:1002050099783F1200068F1A8E198D188C171200D7
:10021500E112028F7B4CE4FDFF1203AA7B69E4FD2A
:100225007F011203AA7B67E4FD7F021203AA0BE498
:10023500FD7F031203AA7B74E4FD7F041203AA7BEE
:100245003AE4FD7F051203AAAB0DE4FD7F07120317
:10025500AAAB08E4FD7F081203AAAB09E4FD7F09F8
:100265001203AAAB0CE4FD7F0A1203AAAB0EE4FD50
:100275007F0B1203AA7B6CE4FD7F0D1203AA7B782A
:0A028500E4FD7F0E1203AA0201D26D
:10000300020157EC5D046005E85904700302014DD9
:10001300120118580460F6EC4860F2EC7004FDFE1F
:10002300FF22C860DB2481C85009C39860025006D0
:100033000201549850CAF582E9294B4A7005AB82F4
:1000430002014375F0007C1A7880C3EF9BEE9AEDB2
:1000530099400DC3EF9BFFEE9AFEED99FDE842F048
:10006300DC23ACF0D0E0FFD0E0FED0E0FDAB82209B
:10007300E7101BEB60BAEC2CFCEF33FFEE33FEED25
:1000830033FD02012FE803F830E705C0F075F000F7
:10009300EF2FFFEE33FEED33FD40B830E7C280AA09
:1000A30075F020800E75F010800575F0087D007ED8
:1000B300007F003392D530D5031201B7EC334010E3
:1000C300EF33FFEE33FEED33FDEC33FCD5F0ED22E1
:0E00D300E5F0247EA2D513CC92E7CDCEFF221D
:1000E100EDD2E7CD33EC3392D524814006E4FFFE17
:1000F100FDFC22FCE4CFCECDCC24E0501174FF8076
:10010100EDC3CC13CCCD13CDCE13CECF13CF047012
:07011100F030D5DE0201B75A
:10011800E9D2E7C933E833F892D5EDD2E7CD33EC2D
:0701280033FC5002B2D522A6
:10012F00EC30E7100FBF000C0EBE00080DBD000431
:10013F000BEB6014A2D5EB13FCED92E7FD2274FFDD
:10014F00FCFDFEFF22E480F8A2D574FF13FC7D8036
:03015F00E480EF4A
:10016200BC000BBE0029EF8DF084FFADF022E4CC81
:10017200F875F008EF2FFFEE33FEEC33FCEE9DEC4A
:10018200984005FCEE9DFE0FD5F0E9E4CEFD22ED90
:10019200F8F5F0EE8420D21CFEADF075F008EF2FDA
:1001A200FFED33FD4007985006D5F0F222C398FDCB
:0501B2000FD5F0EA2268
:0E01B700C3E49FFFE49EFEE49DFDE49CFC2259
:00000001FF
