:03000000020FBA32
:0C0FBA00787FE4F6D8FD758121020DDB84
:100F5900EF1FAC0670011E4C600B007D0B7CB9DCE9
:050F6900FEDDFC80EB41
:010F6E002260
:0E0F8300EF1FAC0670011E4C60030080F322CD
:100EB700D7AACBD9A3BA00B9FEB9FEB9FE0031252E
:100EC70034662A0030313233343536373839003218
:100ED7003031393132333435360032303139363505
:100EE70034333231003031323334353637383961C3
:060EF70062636465660001
:100DDB0078027C007D017BFF7A0E79EC7E007F111F
:100DEB001206A5120E497F647E00120F59E4FD1204
:100DFB000E3E7BFF7A0E79B77D01E4FF120EFD7B71
:100E0B00FF7A0E79BE7D04E4FF120EFD7BFF7A0E96
:100E1B0079C590001612057E90001912052D3DF52F
:100E2B00C28F7B017A0079021207307D03E4120E28
:030E3B003E80FEF8
:0B0E3E007B017A007902FF120EFD22FA
:0E0F9F0061006200630080908898A0B0A8B83E
:100D400090004EE090004DFFD3E0FEEF6480F8EE9F
:100D500064809822E0900053FF3395E0FEEF24106A
:100D6000FFE43EFEE0FD3395E0FCC3ED9FEE6480C2
:100D7000F8EC6480982212055EEEFF3395E08F82D6
:100D8000F5831204B6FF90004312055E900053E015
:100D90003395E08D82F583EF0204F59000437E00E9
:100DA0007F107D2002055E90004312055E900010CA
:100DB000E40204F5900053E004F0A3E004F022ED17
:100DC0009410EC648094802290004CE0FF900054DA
:0B0DD000E0FEC322C3EC64809480228C
:100E49007F297E00120F59D2A100C2A000D2A07F33
:100E59000A7E00120F83C2007F30120E9D7F30126E
:100E69000F6F7F257E00120F83C2007F80120E9DB7
:100E79007F10120EAA7F0C120EAA7F01120F6F7F2C
:100E89000A7E00120F59C2007F06120F6F7F647E1F
:100E990000020F83120F6F7F647E00120F83C2005E
:0E0EA90022120F6F7F647E00120F83C20022A0
:0D0FAD007580FFC2A4D2A3D2A2E58033223A
:100F6F00120FAD40FBA20092A4C2A3D2A2008F80A9
:040F7F0000C2A222E8
:100EFD00EFC3940774809480502AEDC394087480D6
:100F0D0094805020ED900FA5932FFFC200120F6F0C
:100F1D0012049DFF600ED200120F6F740129F9E4C7
:040F2D003AFA80EC20
:010F3100229D
:0E0F9100C2007F01120F6F7F0A7E00020F590F
:060C910090005512057EE3
:100C970090005DE0FF90005CE06F7003020D3F90F5
:100CA7000055120D9E1205AD900055120DAA900029
:100CB7005CE0900060F0E4A3F090005CE0900060DE
:100CC700120D58504090005BE0FF900061C3120D79
:100CD700495032120DD44024120DBF501F900058B6
:100CE70012055EEEFF3395E08F82F5831204B6FF9F
:100CF70090005512055E900060120D8F90006012F3
:100D07000DB7020CC090005512055E7D01E4FF127D
:100D17000EFD90005EE0FEA3E0FF120F5990005D0C
:100D2700E090005C120D4740047FFF80027F019036
:080D3700005CE02FF0020C97B4
:010D3F002291
:060B4E0090004312057E39
:100B5400120D4040047FFF80027F0190004EE02F81
:100B6400F0900050E0FF90004F120D4840047FFFCA
:100B740080027F01900050E02FF090004EE0FF9043
:100B8400004DE0FEB5070F900050E0FD90004FE0EF
:100B94006D7003020C71EE6F6051120D9B1205AD66
:100BA40090004DE0900053F0E4A3F090004D120D3E
:100BB40054501E120DC8120D4B5016120DD4400B7A
:100BC400120DBF5006900046120D76120DB4020BA2
:100BD400AF120DA7E4FDFF120EFD120D4040047F7D
:100BE400FF80027F0190004DE02FF0120C827A0FFB
:100BF400799F7D02120C72E06F606C120D9B1205DE
:100C0400AD120DA790004FE0900053F0E4A3F090D4
:100C1400004F120D54501E120DC8120D4B501612D7
:100C24000DD4400B120DBF5006900049120D7612E0
:100C34000DB4020C137BFF7A0F79A17D02E4FF123D
:100C44000EFD90004312055E0DE4FF120EFD7A0FB7
:100C540079A31D120C72120D4840047FFF80027F9D
:0D0C64000190004FE02FF0120C82020B7E79
:100C7100227BFFE4FF120EFD900050E0FF90004F39
:100C810022900051E0C313FEA3E013FF120F59227B
:1006CB00E5082416F582E43400F583E00508229052
:1006DB000013300703900016E475F0011205670252
:1006EB00049D2000E97F2ED2008018EF540F249038
:1006FB00D43440D4FF30040BEF24BFB41A005003A2
:10070B002461FFE50960021509050CE50C70020573
:10071B000B30070E900013E475F001120567EF0222
:10072B0004E3020F327403D2078003E4C207F50817
:10073B0090001312057EE4F509F50BF50CE5096045
:10074B00077F2012070E80F5750AFFC201C200C297
:10075B0002C203C205C206C2081206DAFF700D30D0
:10076B0007057F0012071FAF0CAE0B22B4255FC22B
:10077B00D5C2041206DAFF24D0B40A00501A75F061
:10078B000A780930D50508B6FF0106C6A426F6205F
:10079B00D5047002D20380D924CFB41A00EF5004D1
:1007AB00C2E5D204020A11D20180C6D20080C0D2A7
:1007BB000280BCD2D580BAD20580B47F2012070E3E
:1007CB002002077401B5090040F11206CBFF120796
:1007DB000E020748D208D20680951206CBFB1206F2
:1007EB00CBFA1206CBF94A4B7006790F7A0B7BFFCB
:1007FB0020022EE509602A7E008E8275830012048A
:10080B00B660060EEE650A70F0C2D5EBC0E0EAC02A
:10081B00E0E9C0E0EE120A72D0E0F9D0E0FAD0E0E5
:10082B00FB12049DFF60AAEBC0E0EAC0E0E9C0E068
:10083B0012070ED0E02401F9D0E03400FAD0E0FB2F
:10084B00E50A0460DCD50AD98087D20280A2120A9D
:10085B005460F7E50A700104120003A90A600DE564
:10086B000A600914F50A120AFCEF60F3EA30E7029A
:10087B00F404C3995079EAF4250A0430E701E4043F
:10088B00F50A800D120A5460C1EA050A250A120006
:10089B0003EA900042F030E701E4250A04D50A048C
:1008AB0020050114120A72E4C0E0120AFC90004207
:1008BB00E0601320E70714F01206F6802204F0D054
:1008CB00E014C0E07F001206F6E50A60071206EDA1
:1008DB00150A800B3005031206EDD0E0020748D055
:1008EB00E00480C4120A54609EE50A0412000390CF
:1008FB000042EAF0E50A2005026001042404120A12
:01090B007279
:10090C0074FF04C0E0120AFC1206F6E50A20050288
:10091C0060031206EDD0E0B50AE87F45120700909F
:10092C000042E07F2B30E7047F2DF404C0E0120777
:10093C000ED0E075F00A84C0F01206F7D0E0120673
:10094C00F7020748791080027908C206C2088008AD
:10095C00D2D5790A8004790AC2D5E50A047002F569
:10096C000AE4FAFDFEFF1206CBFC7B0820011312F1
:10097C0006CBFD7B1030000A1206CBFE1206CBFF15
:10098C007B20EC3382D592D55013C3E43000069F04
:10099C00FFE49EFEE42001039DFDE49CFCE4CBF807
:1009AC00C201EC700CCFCECDCCE824F8F870F380FB
:1009BC0017C3EF33FFEE33FEED33FDEC33FCEB33BB
:1009CC00FB994002FB0FD8E9EB300105F8D0E0C4ED
:1009DC0048B201C0E00AEC4D4E4F78207B0070C24B
:1009EC00EAB50A0040BCC0E0120A74D0F0D0E02096
:1009FC000104C4C0E0C4B201C0F01206F7D0F0D5B7
:100A0C00F0EB02074812058707E55309505807B663
:100A1C004C07B24209544F095C44095C4907CB436B
:100A2C00096255088F4608EF450859470B2F5007A8
:100A3C00BA2D07BE2E07E12B07C22307DF200B18A8
:100A4C002A077A48000007D9E50AB4FF03750A069D
:100A5C001206CBFC1206CBFD1206CBFE1206CBFF08
:100A6C0090003B020040790AA2D5200314300509FE
:100A7C00B910020404B9080104A2D52006025001E1
:100A8C00042002689202B509005034C0E07F203087
:100A9C0003197F30A20272067205500F120ACBC2E4
:100AAC0002C206C205C2087F30800F300503E9C0C0
:100ABC00E012070E300503D0E0F9D0E0B509CC30D8
:100ACC0005177F30B9100C12070E7F583004077FC2
:100ADC00788003B9080312070E3002057F2D020738
:100AEC000E7F202008F87F2B2006F322920280CF65
:100AFC007F00B40700500B243BF582E43400F583EF
:100B0C00E0FF22286E756C6C2900D2011206CB30E6
:100B1C0001F8C201780930D50108F602077A2D5088
:100B2C004349581206CB2403B405004001E4900B52
:100B3C002A931206FF743A1206FFD20375090402B7
:020B4C0009504E
:10000300F920E73624F950037907E4F42402FBE5E9
:1000130082158270021583DBF6E024FB501BE96036
:1000230014E4F0E582158270021583E004F0B40A4B
:0D00330008E4F0D9EE7401F00A22C2D522D3
:10004000ED33EC3392D5FA602AB4FF33EDC2E77B8F
:10005000FF60067A007965E4227A00796E20D50483
:100060007A007969224E614E002B494E46002D4997
:100070004E4600E47A08F0A3DAFC7B00740722C045
:1000800083C082ECC0E0EDC0E0EEC0E0EFC0E0EA8B
:1000900075F010A4CAABF075F04DA42BFBE435F05D
:1000A000FCEA2410FAEB34C5FBEC34D9FCEDC2E7D2
:1000B000FF75F056A4F42411C5F0F434C58FF0A4F4
:1000C0002AE5F03BE43CF020E714120413D0E0FFF3
:1000D000D0E0FED0E0FDD0E0FC1203468014F40432
:1000E000120413D0E0FFD0E0FED0E0FDD0E0FC121F
:1000F000023DD082D083E0FAEDD2E7CD33EC332459
:1001000082FBE4C3CF33CFCE33CECD33CD33DBF35D
:100110007B0775F00A846004F0A31B0AE5F0F0A3E6
:100120008FF0740AA4FFACF08EF0740AA42CFEAC1D
:10013000F050010C8DF0740AA42CFDE435F0F0A30E
:05014000DBDE74072264
:10014500020488E86480F8E933E83360110460F05C
:10015500ED33EC337009E8FCE9FDEAFEEBFF220420
:1001650060DED3EB9FEA9EE99DE8C2E78CF0C2F71B
:1001750095F0400CE8CCF8E9CDF9EACEFAEBCFFBE7
:1001850012045385D0F05804700320D5B3E80470E9
:10019500075002B2D502049292D5EC0460F7E4CC84
:1001A500C0E0C398F8603B94186008400DD0E0FBB0
:1001B50002046AE4FBFAC9FC8028E830E406E4C9D5
:1001C500FBE4CAFCE830E305E4C9CACBFCE8540704
:1001D5006010F8C3E913F9EA13FAEB13FBEC13FC0F
:1001E500D8F130F52FC3E49CFCEF9BFFEE9AFEEDB2
:1001F50099FDD0E0FBEF4E4D4C701222DB0302045B
:100205008FEC2CFCEF33FFEE33FEED33FDED30E7E5
:10021500EB02046AEF2BFFEE3AFEED39FDD0E0FB71
:1002250050130BBB0003020492ED13FDEE13FEEF1A
:0802350013FFEC13FC02046A44
:10023D00EC4D6011E8497017ED33EC3304600DE4BB
:10024D00FCFFFEFD22E933E8330470F80204881246
:10025D00045358046009E4CC248150062850090247
:10026D00049228400302048FC0E0EB4A7044B98029
:10027D0006D0E0FB02047EEF4E701CBD8008EBFF44
:10028D00EAFEE9FD80EBE98DF0A4FEE5F002032620
:10029D00E9CDF9EAFEEBFFEF89F0A4FCE5F0CE899C
:1002AD00F0A42EFFE435F0CD89F0A42DFEE435F059
:1002BD008067EF4E7005BD80D780C3EF8BF0A4AC87
:1002CD00F0EE8BF0A42CFCE435F0F8EF8AF0A42CC2
:1002DD00E5F038FCE433CB8DF0A42CFCE5F03BF8D5
:1002ED00EE8AF0A42CFCE5F038F8E433CF89F0A4C5
:1002FD002CFCE5F038CF3400CE89F0A42FFFE5F0CB
:10030D003EFEE433C98DF0A42EFEE5F039CD8AF022
:10031D00A42FFFE5F03EFEE43DFD33D0E0FB50079A
:10032D000BBB000F020492EC2CFCEF33FFEE33FEFF
:06033D00ED33FD02046A2D
:10034300020492EC5D046005E8590470030204881A
:10035300120453580460F6EC4860F2EC7004FDFE9E
:10036300FF22C860DB2481C85009C398600250068D
:1003730002048F9850CAF582E9294B4A7005AB8273
:1003830002047E75F0007C1A7880C3EF9BEE9AED31
:1003930099400DC3EF9BFFEE9AFEED99FDE842F005
:1003A300DC23ACF0D0E0FFD0E0FED0E0FDAB822058
:1003B300E7101BEB60BAEC2CFCEF33FFEE33FEEDE2
:1003C30033FD02046AE803F830E705C0F075F00076
:1003D300EF2FFFEE33FEED33FD40B830E7C280AAC6
:1003E3003F8000004120000042C80000447A000022
:1003F300461C400047C35000497424004B189680A4
:100403004CBEBC205A0E1BCA6753C21C749DC5AE9A
:10041300FB60065407601C2323120441EB5438602D
:100423000912042D12043C12023DECF8EDF9EEFA28
:10043300EFCB22EB12043C80F1543803241C9003CD
:10044300E3FE93FC0EEE93FD0EEE930ECE93FF228E
:10045300E9D2E7C933E833F892D5EDD2E7CD33ECEF
:0704630033FC5002B2D52268
:10046A00EC30E7100FBF000C0EBE00080DBD0004F3
:10047A000BEB6014A2D5EB13FCED92E7FD2274FF9F
:10048A00FCFDFEFF22E480F8A2D574FF13FC7D80F8
:03049A00E480EF0C
:10049D00BB010689828A83E0225002E722BBFE025D
:0904AD00E32289828A83E4932290
:1004B600BB010CE58229F582E5833AF583E02250FB
:1004C60006E92582F8E622BBFE06E92582F8E22245
:0D04D600E58229F582E5833AF583E493225F
:1004E300BB010689828A83F0225002F722BBFE01F8
:0204F300F322F2
:1004F500F8BB010DE58229F582E5833AF583E8F03D
:10050500225006E92582C8F622BBFE05E92582C8E8
:02051500F222D0
:10051700C5F0F8A3E028F0C5F0F8E582158270026F
:060527001583E038F0220C
:10052D00A8828583F0D083D082120544120544122F
:10053D000544120544E473E493A3C583C5F0C58354
:10054D00C8C582C8F0A3C583C5F0C583C8C582C818
:01055D00227B
:09055E00E0FBA3E0FAA3E0F9229E
:10056700F8E0FBA3A3E0F925F0F0E582158270021D
:070577001583E0FA38F022C1
:09057E00EBF0A3EAF0A3E9F0227E
:10058700D083D082F8E4937012740193700DA3A303
:1005970093F8740193F5828883E473740293686017
:0605A700EFA3A3A380DF17
:100F3200EFB40A07740D120F3D740A309811A89984
:100F4200B8130CC2983098FDA899C298B811F6301F
:070F520099FDC299F59922F7
:1005AD00EF4E6012EF60010EEDBB010B89828A8365
:1005BD00F0A3DFFCDEFA2289F05007F709DFFCA972
:0C05CD00F022BBFEFCF309DFFCA9F022C9
:1005D900E709F608DFFA8046E709F208DFFA803E04
:1005E90088828C83E709F0A3DFFA8032E309F608F1
:1005F900DFFA8076E309F208DFFA806E88828C835D
:10060900E309F0A3DFFA806289828A83E0A3F6080E
:10061900DFFA805689828A83E0A3F208DFFA804AEA
:1006290080D280FA80C680D4806580F280318010C3
:1006390080A680EA809A80A880DA80E280CA803128
:1006490089828A8363A20188828C8363A201E493ED
:10065900A363A201F0A363A201DFF3DEF1800B899A
:10066900828A83E493A3F608DFF9ECFAA9F0EDFB9B
:100679002289828A8363A20188828C8363A201E032
:10068900A363A201F0A363A201DFF4DEF280DB8998
:10069900828A83E493A3F208DFF980CE88F0EF60C1
:1006A900010E4E60C588F0ED2402B4040050BBF57C
:1006B90082EB2402B4040050B1232345822390061F
:0206C900297393
:00000001FF
