:0C010200040D08040201040901020408B5
:1000C400E4FDFCC3ED9FEC9E5015E4FBFA0BBB0072
:0F00D400010AEB64704A70F50DBD00010C80E469
:0100E30022FA
:1000E400E4F9E9C39404748094805011740D29F8E0
:0D00F400E6F580AF087E001200C40980E52B
:0101010022DB
:04010F00E4F5802271
:10008F007F327E001200C47508199000001200E440
:10009F00A3E5826410458370F41508C3E508940442
:1000AF007480948050E475081912010F7FF47E015B
:0500BF001200C480D511
:03000000020003F8
:0C000300787FE4F6D8FD75811002004AF9
:10000F0002008FE493A3F8E493A34003F68001F278
:10001F0008DFF48029E493A3F85407240CC8C333F2
:10002F00C4540F4420C8834004F456800146F6DFC1
:10003F00E4800B0102040810204080900102E47E4E
:10004F00019360BCA3FF543F30E509541FFEE493B6
:10005F00A360010ECF54C025E060A840B8E493A37D
:10006F00FAE493A3F8E493A3C8C582C8CAC583CAA8
:10007F00F0A3C8C582C8CAC583CADFE9DEE780BE60
:01010E0000F0
:00000001FF
