:03000000020003F8
:0C000300787FE4F6D8FD75810702004A02
:1003C100323031393231373132332000B4AED0D00E
:1003D100B2E2CAD4B3CCD0F200B4AED0D0B2E2CA49
:0C03E100D4B3CCD0F2B9FEB9FEB9FE00D6
:10025A006042000030313233343536373839616222
:10026A00636465666768696A6B6C6D6E6F707172DC
:10027A00737475767778797A303132333435363724
:10028A0038396162636465666768696A6B6C6D6E4A
:06029A006F707172730029
:10016D007FF47E0112045D12032A7BFF7A0379C1AD
:10017D00E4FDFF1203617BFF7A0379CD7D017F01E1
:10018D001203617BFF7A0379DA7D02E4FF120361CA
:10019D007BFF7A0379CD7D037F021203617FE87EB9
:1001AD000312045D7E007F001201C17FE87E031201
:0401BD00045D80F06D
:0C048E0080908898A0B0A8B80020103022
:07043A00120441EC54F0FF35
:10044100E4FEEEC3940874809480500FC2C1EF257E
:0B045100E0FF92C0D2C1C2C10E80E7E4
:01045C00227D
:1002A100E4FFFEFDEDC39408748094805011EF25A6
:1002B100E0FFC2C1D2C1C2C130C0010F0D80E5E46F
:1002C100FDEDC39408748094805011EE25E0FEC2C8
:1002D100C1D2C1C2C130C0010E0D80E5EE540FFE86
:0502E100EF54F02EFFB8
:0102E60022F5
:0D0481007FFC1204411202A1EF20E7F422DB
:100415007F36120426EB2480FF120426EA24802965
:01042500FFD7
:10042600AC071204817FF812043AAF04EFC454F00B
:04043600FF0204417C
:1003ED00900042E0FBA3E475F0011203ABA9F0FA13
:0403FD00120392FF56
:10040100AC071204817FFA12043AAF04EFC454F02E
:04041100FF020441A1
:10032A007F327E0012045D7F341204267F017E0034
:10033A0012045D7F301204267F017E0012045D7F65
:10034A000C1204267F017E0012045D7F011204262E
:07035A007F147E0002045D28
:10036100EFC39407748094805026EDC39408748081
:100371009480501CED90048E932FFF1204261203DB
:1003810092FF600C120401740129F9E43AFA80EE3B
:010391002249
:0801C100900048EEF0A3EFF0FE
:1001C9007F80120426E4FBEBC3940474809480506E
:1001D90034E4FAEAC3941074809480502500EB90BB
:1001E900049693FFEAFDEF2DFFE433FE900048E00B
:1001F900FCA3E02FF582EC3EF583E0FF1204010A2F
:0502090080D10B80C252
:01020E0022CD
:0B008F00900042EBF0A3EAF0A3E9F0C0
:10009A00E4900047F0900047E0C39409748094808C
:1000AA005066E4900046F0900046E0C394207480C5
:1000BA009480504AE4900045F0900045E0C39408CB
:1000CA007480948050307F36120426A3E02480FF87
:1000DA00120426900045E02480FF900047E02FFF9D
:1000EA001204261203ED1203ED7F3012042690004B
:1000FA0045E004F080C3900046E004F080A9900037
:08010A0047E02408F002009F09
:0101120022CA
:1002E700E4F9E9C39409748094805036E4FBEBC3C6
:1002F7009420748094805024E4FAEAC394087480AC
:10030700948050151204157F551204017F5512046D
:10031700017F301204260A80E10B80D2740829F984
:0203270080C094
:0103290022B1
:10011300E4F9E9C3940974809480504DE4FBEBC384
:10012300942074809480503BEB54016401700890D8
:10013300004A74FFF08005E490004AF0E4FAEAC351
:10014300940874809480501812041590004AE0FFBC
:10015300120401E0FF1204017F301204260A80DE3C
:090163000B80BB740829F980A986
:01016C002270
:05020F0090004BEFF030
:10021400E4F9E9C39409748094805039E4FBEBC396
:100224009420748094805027E4FAEAC3940874807C
:100234009480501812041590004BE0FF120401E062
:10024400FF1204017F301204260A80DE0B80CF7473
:050254000829F980BD3E
:010259002282
:10045D00EF1FAC0670011E4C600B007D0B7CB9DCF0
:05046D00FEDDFC80EB48
:010472002267
:0E047300EF1FAC0670011E4C60030080F322E8
:10000F0002016DE493A3F8E493A34003F68001F299
:10001F0008DFF48029E493A3F85407240CC8C333F2
:10002F00C4540F4420C8834004F456800146F6DFC1
:10003F00E4800B010204081020408090025AE47EF5
:10004F00019360BCA3FF543F30E509541FFEE493B6
:10005F00A360010ECF54C025E060A840B8E493A37D
:10006F00FAE493A3F8E493A3C8C582C8CAC583CAA8
:10007F00F0A3C8C582C8CAC583CADFE9DEE780BE60
:0102A000005D
:10039200BB010689828A83E0225002E722BBFE0269
:0903A200E32289828A83E493229C
:1003AB00A3F8E0C5F025F0F0E58215827002158305
:0603BB00E0C838F0E82262
:00000001FF
