:0C012300040C0804020104080102040896
:0900D00029F8E6F5807F047E00AA
:1000D900E4FDFCC3ED9FEC9E5015E4FBFA0BBB005D
:0F00E900010AEB64704A70F50DBD00010C80E454
:0100F80022E5
:1000F900E4F9E9C39404748094805008740C1200E4
:04010900D00980EEAB
:01010D0022CF
:10010E00E4F9E9C3940474809480500874081200D2
:04011E00D00980EE96
:0101220022BA
:04013000E4F5802250
:10008F007F327E001200D99000001200F9A3E582A2
:10009F00B4F4F7E583B401F21201307FF47E01125C
:1000AF0000D9E4F583F58212010EA3E582B4F4F7CB
:1000BF00E583B401F21201307FF47E011200D98082
:0100CF00C66A
:03000000020003F8
:0C000300787FE4F6D8FD75810F02004AFA
:10000F0002008FE493A3F8E493A34003F68001F278
:10001F0008DFF48029E493A3F85407240CC8C333F2
:10002F00C4540F4420C8834004F456800146F6DFC1
:10003F00E4800B0102040810204080900123E47E2D
:10004F00019360BCA3FF543F30E509541FFEE493B6
:10005F00A360010ECF54C025E060A840B8E493A37D
:10006F00FAE493A3F8E493A3C8C582C8CAC583CAA8
:10007F00F0A3C8C582C8CAC583CADFE9DEE780BE60
:01012F0000CF
:00000001FF
