:03000000020235C4
:0C023500787FE4F6D8FD7581200201BC42
:10014500750EFFE4F50FAF90EF640F60657F057ED8
:100155000012020CAF90EF640F605475900FAF90D2
:10016500EF24F5601024FE6011146013240770124B
:10017500E4F50E800D750E018008750E028003757D
:100185000E037590F0AF90EF2450600C24E0600CE6
:1001950024F0600C2470800E7404800674088002BC
:1001A500740C250EF50E7F0A7E0012020C80037F6B
:0701B5000022E50E04FF2209
:03001B00000000E2
:1001BC00780B7C007D007BFF7A00791B7E007F032F
:1001CC001200F61202227590F07F771202417FF432
:0C01DC007E0112020CAF9012024180ED77
:10020C00EF1FAC0670011E4C600B007D0B7CB9DC43
:06021C00FEDDFC80EB2278
:10022200759850758920758BFD758DFDD28ED2AC77
:03023200D2AF2226
:03002300020003D5
:10000300C0D0309809C298859980A29A92A230995B
:0800130004C299C200D0D032F2
:090241002000FDEFD200F5992226
:1001E8008B088A09890AAB08AA09A90A12011C60A6
:1001F800127808E475F00112013512011CFF120291
:040208004180E3222C
:10002600E709F608DFFA8046E709F208DFFA803EBC
:1000360088828C83E709F0A3DFFA8032E309F608A9
:10004600DFFA8078E309F208DFFA807088828C8311
:10005600E309F0A3DFFA806489828A83E0A3F608C5
:10006600DFFA805889828A83E0A3F208DFFA804C9F
:1000760080D280FA80C680D4806980F28033801076
:1000860080A680EA809A80A880DA80E280CA8033DF
:1000960089828A83ECFAE493A3C8C582C8CCC58357
:1000A600CCF0A3C8C582C8CCC583CCDFE9DEE78027
:1000B6000D89828A83E493A3F608DFF9ECFAA9F0A6
:1000C600EDFB2289828A83ECFAE0A3C8C582C8CCFC
:1000D600C583CCF0A3C8C582C8CCC583CCDFEADE15
:1000E600E880DB89828A83E493A3F208DFF980CC77
:1000F60088F0EF60010E4E60C388F0ED2402B40470
:100106000050B9F582EB2402B4040050AF23234516
:06011600822390007673C5
:10011C00BB010689828A83E0225002E722BBFE02E1
:09012C00E32289828A83E4932214
:10013500FAE6FB0808E6F925F0F618E6CA3AF622CB
:00000001FF
